S01100006361727068617365312E737265639B
S113000029C0000037C0000035C0000070C20000E5
S113001031C000002FC000002DC000002BC0000024
S113002029C0000027C0000025C0000092C20000C3
S113003021C000001FC000001DC000001BC0000044
S113004019C0000017C0000015C0000013C0000054
S113005011C0000011241FBECFE5D8E0DEBFCDBF24
S113006020E0A0E6B0E001C01D92A636B207E1F799
S113007068D185C4C5CFCF93C82FF8D0CC2319F04D
S1130080C13071F01AC04FEF60E183E071D04FEFDF
S113009064E083E06DD04FEF68E083E069D019C07D
S11300A04FEF60E283E064D04FEF60E483E060D020
S11300B04FEF60E883E05CD00CC04FEF60E183E079
S11300C057D04FEF64E083E053D04FEF68E083E014
S11300D04FD0CF910895882319F0813011F10895FC
S11300E0613069F018F0623099F0089540E064E0FE
S11300F083E07DD040E068E083E079C008954FEF6D
S113010064E083E074D040E068E083E070C0089568
S113011040E064E083E06BD04FEF68E083E067C0C9
S11301200895613069F018F0623099F0089540E064
S113013060E483E05CD040E060E883E058C0089568
S11301404FEF60E483E053D040E060E883E04FC0C9
S1130150089540E060E483E04AD04FEF60E883E034
S113016046C0089548EE53E060E070E089C0089509
S1130170813089F028F08230C9F0833011F12CC02D
S11301804F3F21F48AB3682B6ABB08958AB3609504
S113019068236ABB08954F3F21F487B3682B67BB7C
S11301A0089587B36095682367BB08954F3F21F492
S11301B084B3682B64BB089584B36095682364BBDF
S11301C008954F3F21F481B3682B61BB089581B337
S11301D06095682361BB08954F3F21F48AB3682B6F
S11301E06ABB08958AB3609568236ABB0895813019
S11301F089F028F08230C9F0833011F12CC04F3FD0
S113020021F48BB3682B6BBB08958BB36095682383
S11302106BBB08954F3F21F488B3682B68BB0895E6
S113022088B36095682368BB08954F3F21F485B374
S1130230682B65BB089585B36095682365BB0895F5
S11302404F3F21F482B3682B62BB089582B360955B
S1130250682362BB08954F3F21F48BB3682B6BBBBB
S113026008958BB3609568236BBB08958EB5806148
S11302708EBD8FB5806F8FBD8EB583608EBD0895A2
S11302808F929F92AF92BF92CF92DF92EF92FF92A2
S11302900F931F93CF93C82FDB01CA01880F991FB7
S11302A0AA1FBB1F880F991FAA1FBB1F880F991F66
S11302B0AA1FBB1F880F991FAA1FBB1F880F991F56
S11302C0AA1FBB1F880F991FAA1FBB1F9C01AD014A
S11302D0220F331F441F551F60E074E284EF90E047
S11302E02CD369017A0137BD26BD06B517B56C2F2D
S11302F070E080E090E032D220E030E048EC52E45C
S113030097D14B015C01B60180E090E025D29B01BE
S1130310AC01C501B401AED2F3D1061B170B1BBD52
S11303200ABD8AB59BB599BD88BDCF911F910F9128
S1130330FF90EF90DF90CF90BF90AF909F908F9001
S1130340089580E098DE81E096DE61E080E0C3DE1F
S113035061E081E0C0DE80E49DD0789485E690E0A1
S113036076D0809161002091650090E0982F8827D5
S1130370820F911D10926100019690936400809306
S1130380630061E080E0A7DE61E081E0A4DE80E557
S1130390E9DE80916300909164000B9730F460E093
S11303A080E099DE60E081E096DE60E971E080E063
S11303B090E001D0D3CFAB01BC01411551056105DB
S11303C0710571F408950197F1F72F5F3F4FC9014B
S11303D0A0E0B0E084179507A607B70718F00895C2
S11303E020E030E088EE93E0EECFAB01BC01411594
S11303F051056105710571F408950197F1F72F5FB7
S11304003F4FC901A0E0B0E084179507A607B707DE
S113041018F0089520E030E088E290E0EECF04B6D2
S113042006FC02C080E0089580E40895882319F052
S1130430803429F008C084B78F7B84BF089584B7C3
S1130440806484BF089584B7806484BF0895CF9383
S1130450DF93EC014FEF68E080E0C9DE6AE070E012
S113046080E090E0C2DF40E068E080E0C0DE64EF5E
S113047071E080E090E0B9DF809160008883DF91D3
S1130480CF91089583B7856083BF08958BB7806249
S11304908BBF0895EF920F93CF93C82FEE24E3946C
S11304A000E020E045E060E080E064D04FEF68E0E9
S11304B080E05EDE40E064E081E05ADE4FEF64E01D
S11304C081E095DECC2319F0C03429F008C084B74C
S11304D08F7B84BF07C084B7806484BF03C084B7A4
S11304E0806484BFD3DFCF910F91EF9008951F9262
S11304F00F920FB60F9211242F933F934F935F9354
S11305006F937F938F939F93AF93BF93EF93FF93D7
S113051086DF803431F410926100B4DF80E086DF3E
S113052007C013BE82B78093600012BE80E47EDFF2
S1130530FF91EF91BF91AF919F918F917F916F91B7
S11305405F914F913F912F910F900FBE0F901F908D
S113055018951F920F920FB60F9211248F938091CA
S113056061008F5F809361008F910F900FBE0F9099
S11305701F901895EF920F939E2D882339F08830A1
S113058039F483B7886083BF0CBF02C083B783BFCD
S11305906031A1F018F4662351F013C0603219F0F1
S11305A0603341F00EC083B7806283BF0AC083B753
S11305B083BF07C083B7806383BF03C083B78061F1
S11305C083BF423099F028F4442349F0413051F07C
S11305D01CC0443099F070F04530A1F016C0109260
S11305E0620013C081E0809362000FC082E08093B8
S11305F062000BC083E08093620007C084E08093B4
S1130600620003C085E08093620022BF913021F034
S113061038F0923039F009C089B7816089BF05C0CC
S113062019BE03C089B7826089BF0F91EF90089506
S11306300CD0E6C0DED040F0D5D030F021F45F3FDE
S113064019F0C7C0511110C1CAC0EBD098F3992357
S1130650C9F35523B1F3951B550BBB27AA27621782
S11306607307840738F09F5F5F4F220F331F441FC7
S1130670AA1FA9F333D00E2E3AF0E0E830D09150FF
S11306805040E695001CCAF729D0FE2F27D0660FEC
S1130690771F881FBB1F261737074807AB07B0E82B
S11306A009F0BB0B802DBF01FF2793585F4F2AF041
S11306B09E3F510568F08DC0D7C05F3FECF3983E74
S11306C0DCF3869577956795B795F7959F5FC9F79E
S11306D0880F911D9695879597F90895E1E0660F27
S11306E0771F881FBB1F621773078407BA0720F0A0
S11306F0621B730B840BBA0BEE1F88F7E095089509
S113070098D088F09F5790F0B92F9927B751A0F04F
S1130710D1F0660F771F881F991F1AF0BA95C9F791
S113072012C0B13081F09FD0B1E008959CC0672F12
S1130730782F8827B85F39F0B93FCCF38695779541
S11307406795B395D9F73EF490958095709561952A
S11307507F4F8F4F9F4F0895E89409C097FB3EF455
S113076090958095709561957F4F8F4F9F4F9923FA
S1130770A9F0F92F96E9BB279395F6958795779578
S11307806795B795F111F8CFFAF4BB0F11F460FF38
S11307901BC06F5F7F4F8F4F9F4F16C0882311F090
S11307A096E911C0772321F09EE8872F762F05C0A4
S11307B0662371F096E8862F70E060E02AF09A953F
S11307C0660F771F881FDAF7880F9695879597F934
S11307D0089597F99F6780E870E060E008959FEFBF
S11307E080EC089500240A941616170618060906C4
S11307F0089500240A941216130614060506089593
S1130800092E0394000C11F4882352F0BB0F40F41A
S1130810BF2B11F460FF04C06F5F7F4F8F4F9F4F5A
S1130820089557FD9058440F551F59F05F3F71F0DC
S11308304795880F97FB991F61F09F3F79F0879543
S11308400895121613061406551FF2CF4695F1DFCC
S113085008C0161617061806991FF1CF869571055C
S1130860610508940895E894BB2766277727CB0190
S113087097F908950BD0C4CFB5DF28F0BADF18F08C
S1130880952309F0A6CFABCF1124EECFCADFA0F396
S1130890959FD1F3950F50E0551F629FF001729F11
S11308A0BB27F00DB11D639FAA27F00DB11DAA1F30
S11308B0649F6627B00DA11D661F829F2227B00D7D
S11308C0A11D621F739FB00DA11D621F839FA00D08
S11308D0611D221F749F3327A00D611D231F849F58
S11308E0600D211D822F762F6A2F11249F575040AF
S11308F08AF0E1F088234AF0EE0FFF1FBB1F661F4A
S1130900771F881F91505040A9F79E3F510570F002
S113091060CFAACF5F3FECF3983EDCF386957795E2
S11309206795B795F795E7959F5FC1F7FE2B880FFD
S1130930911D9695879597F90895A1E21A2EAA1B01
S1130940BB1BFD010DC0AA1FBB1FEE1FFF1FA2177B
S1130950B307E407F50720F0A21BB30BE40BF50B78
S1130960661F771F881F991F1A9469F76095709501
S1130970809590959B01AC01BD01CF010895F89439
S1050980FFCFA3
S9030000FC
